{
  "contractName": "MyTokenSale",
  "abi": [
    {
      "inputs": [
        {
          "internalType": "contract MyToken",
          "name": "_token",
          "type": "address"
        },
        {
          "internalType": "uint256",
          "name": "_tokenprice",
          "type": "uint256"
        }
      ],
      "stateMutability": "nonpayable",
      "type": "constructor"
    },
    {
      "anonymous": false,
      "inputs": [
        {
          "indexed": false,
          "internalType": "address",
          "name": "_buyer",
          "type": "address"
        },
        {
          "indexed": false,
          "internalType": "uint256",
          "name": "_amount",
          "type": "uint256"
        }
      ],
      "name": "Sell",
      "type": "event"
    },
    {
      "inputs": [],
      "name": "no",
      "outputs": [
        {
          "internalType": "uint256",
          "name": "",
          "type": "uint256"
        }
      ],
      "stateMutability": "view",
      "type": "function",
      "constant": true
    },
    {
      "inputs": [],
      "name": "token",
      "outputs": [
        {
          "internalType": "contract MyToken",
          "name": "",
          "type": "address"
        }
      ],
      "stateMutability": "view",
      "type": "function",
      "constant": true
    },
    {
      "inputs": [],
      "name": "tokenprice",
      "outputs": [
        {
          "internalType": "uint256",
          "name": "",
          "type": "uint256"
        }
      ],
      "stateMutability": "view",
      "type": "function",
      "constant": true
    },
    {
      "inputs": [],
      "name": "tokensold",
      "outputs": [
        {
          "internalType": "uint256",
          "name": "",
          "type": "uint256"
        }
      ],
      "stateMutability": "view",
      "type": "function",
      "constant": true
    },
    {
      "inputs": [],
      "name": "value",
      "outputs": [
        {
          "internalType": "uint256",
          "name": "",
          "type": "uint256"
        }
      ],
      "stateMutability": "view",
      "type": "function",
      "constant": true
    },
    {
      "inputs": [
        {
          "internalType": "uint256",
          "name": "number",
          "type": "uint256"
        }
      ],
      "name": "buu",
      "outputs": [],
      "stateMutability": "payable",
      "type": "function",
      "payable": true
    },
    {
      "inputs": [],
      "name": "sold",
      "outputs": [
        {
          "internalType": "uint256",
          "name": "",
          "type": "uint256"
        }
      ],
      "stateMutability": "view",
      "type": "function",
      "constant": true
    },
    {
      "inputs": [],
      "name": "amount",
      "outputs": [
        {
          "internalType": "uint256",
          "name": "",
          "type": "uint256"
        }
      ],
      "stateMutability": "view",
      "type": "function",
      "constant": true
    },
    {
      "inputs": [],
      "name": "price",
      "outputs": [
        {
          "internalType": "uint256",
          "name": "",
          "type": "uint256"
        }
      ],
      "stateMutability": "view",
      "type": "function",
      "constant": true
    }
  ],
  "bytecode": "0x608060405234801561001057600080fd5b506040516104ea3803806104ea8339818101604052604081101561003357600080fd5b81019080805190602001909291908051906020019092919050505033600260006101000a81548173ffffffffffffffffffffffffffffffffffffffff021916908373ffffffffffffffffffffffffffffffffffffffff16021790555081600160006101000a81548173ffffffffffffffffffffffffffffffffffffffff021916908373ffffffffffffffffffffffffffffffffffffffff160217905550806000819055505050610402806100e86000396000f3fe6080604052600436106100865760003560e01c8063aa8c217c11610059578063aa8c217c14610137578063ada7f39914610162578063b6c52ae814610190578063d0bd4c73146101bb578063fc0c546a146101e657610086565b806302c7e7af1461008b57806338c40595146100b65780633fa4f245146100e1578063a035b1fe1461010c575b600080fd5b34801561009757600080fd5b506100a0610227565b6040518082815260200191505060405180910390f35b3480156100c257600080fd5b506100cb610231565b6040518082815260200191505060405180910390f35b3480156100ed57600080fd5b506100f6610237565b6040518082815260200191505060405180910390f35b34801561011857600080fd5b5061012161023d565b6040518082815260200191505060405180910390f35b34801561014357600080fd5b5061014c610246565b6040518082815260200191505060405180910390f35b61018e6004803603602081101561017857600080fd5b8101908080359060200190929190505050610254565b005b34801561019c57600080fd5b506101a561039a565b6040518082815260200191505060405180910390f35b3480156101c757600080fd5b506101d06103a0565b6040518082815260200191505060405180910390f35b3480156101f257600080fd5b506101fb6103a6565b604051808273ffffffffffffffffffffffffffffffffffffffff16815260200191505060405180910390f35b6000600354905090565b60035481565b60045481565b60008054905090565b600060055460005402905090565b80600581905550600160009054906101000a900473ffffffffffffffffffffffffffffffffffffffff1673ffffffffffffffffffffffffffffffffffffffff1663a9059cbb33836040518363ffffffff1660e01b8152600401808373ffffffffffffffffffffffffffffffffffffffff16815260200182815260200192505050602060405180830381600087803b1580156102ee57600080fd5b505af1158015610302573d6000803e3d6000fd5b505050506040513d602081101561031857600080fd5b810190808051906020019092919050505061033257600080fd5b806003600082825401925050819055507f5e5e995ce3133561afceaa51a9a154d5db228cd7525d34df5185582c18d3df093382604051808373ffffffffffffffffffffffffffffffffffffffff1681526020018281526020019250505060405180910390a150565b60055481565b60005481565b600160009054906101000a900473ffffffffffffffffffffffffffffffffffffffff168156fea26469706673582212201022af1ca20a6864e0bf4be47efb6f1102e4f872d2299ff3830a13c05766b6d664736f6c634300060c0033",
  "immutableReferences": {},
  "source": "// SPDX-License-Identifier: GPL-3.0\r\npragma solidity >=0.6.0;\r\n\r\n\r\nimport \"./MyToken.sol\";\r\ncontract MyTokenSale  {\r\n\r\n    uint256 public tokenprice;\r\n    MyToken public token;\r\n    address owner;\r\n    uint256 public tokensold;\r\n    uint256 public value ; \r\n    uint256 public no;\r\n    \r\n    constructor(MyToken _token,uint256 _tokenprice ) public\r\n        {\r\n        owner=msg.sender;\r\n        token=_token;\r\n        tokenprice=_tokenprice;\r\n\r\n    }\r\n    event Sell(address _buyer, uint256 _amount);\r\n   \r\n\r\n    function buu(uint number) public payable {\r\n  \r\n          //require((tokenprice*number)==msg.value,\"Not enough ether to purchase token\");\r\n        no=number;\r\n      \r\n        require(token.transfer(msg.sender, number));\r\n\r\n        tokensold+=number;\r\n        emit Sell(msg.sender, number);\r\n\r\n    }\r\n    function sold() public view returns(uint256){\r\n      return tokensold;\r\n    }\r\n    function amount() public view returns(uint256){\r\n      \r\n      return (tokenprice*no);\r\n\r\n    }\r\n function price() public view returns(uint256){\r\n  return tokenprice;\r\n }\r\n\r\n\r\n   \r\n   }",
  "sourcePath": "/Users/namantripathi/Desktop/Project/contracts/MyTokenSale.sol",
  "compiler": {
    "name": "solc",
    "version": "0.6.12+commit.27d51765.Emscripten.clang"
  },
  "schemaVersion": "3.4.3",
  "updatedAt": "2021-10-01T11:12:57.702Z",
  "networkType": "ethereum",
  "devdoc": {
    "kind": "dev",
    "methods": {},
    "version": 1
  },
  "userdoc": {
    "kind": "user",
    "methods": {},
    "version": 1
  }
}